:08000000803102288731F12F45
:10089600203420340034F0002000111E4F2C700844
:1008A60023009A000800F100F0013A3071020318A3
:1008B600622C30307102031C622CF001F00A700CBD
:1008C6000800F1007108F0000230F036890B682C40
:1008D60070082C0092007108F0000530F035FF3EDC
:1008E600031D712C703591000800F1007108F000AD
:1008F6000230F036890B7C2C70082C0095007108AC
:10090600F0000530F035FF3E031D852C7035940050
:100916000800F401F501701C942C7208F4077308A2
:10092600F53D0130F235F30D890B952C0130F1368A
:10093600F00C890B9A2C70087104031D8E2C750817
:10094600F1007408F0000800003023009C00CF304E
:100956009B001E159F111E129D171D169D1221002C
:100966001112911274080319BB2C23001E17BD2CFB
:1009760023001E1374080319C32C23001D17C52C4E
:1009860023001D139E160800F300F401710874027B
:100996000318080074087307F200720886008701BE
:1009A600010884314E24843174087307F2007208FA
:1009B6008600870101080319080074087307F2000E
:1009C6007208860087010D30010603190800013000
:1009D600F2007208F407C92CF501F60170087104DB
:1009E60003191E2DF701F70AF11B032D0130F0350F
:1009F600F10D890BFA2C0130F4007408F707F72C77
:100A06000130F535F60D890B042D71087302031DAF
:100A16000E2D70087202031C152D7008F202710863
:100A2600F33B75140130F136F00C890B162D0130AD
:100A3600F702031D032D7608F1007508F000080083
:100A46006330210099000E148E140E158E110E12AD
:100A56008E120E178E1323008E0121000C110C121C
:100A66008C12C03023008C05073020009C009B3080
:100A76009B00D0302C0093009201910110308431FC
:100A860064248531D0302C00960095019401003005
:100A96008431782485310030F3000030F2000030D4
:100AA600F1000030F000F4018431A7240800200092
:100AB600CD01CF01CC011030B2003208CE00500873
:100AC600C9005108CA005208CB008531232585315B
:100AD60020000E160330B4008A30B3005630B20040
:100AE600B20B732DB30B732DB40B732D0032200094
:100AF6000E122000CC01CD01CF010C110C128C126C
:100B06008E130E1D8A2D0130B2003208CD070E1F3E
:100B16008E2D0130CD020E1C942D0130B20032080C
:100B2600CF078E1C982D0130CF024F0803194D08B0
:100B36000319B02DCC01CC0AB02D11304E02031C86
:100B4600B82D0130CE02B82D2F304E020318B82D25
:100B56000130B2003208CE07B82D4D08013A03190C
:100B6600A02DFE3A0319A72DB82D4E088431642412
:100B76008531113020004E020318C32D0C16C42DEA
:100B86000C122F304E02031CCA2D0C15DB2D0C1136
:100B9600DB2D2D30843178248531E42D30308431BD
:100BA60078248531E42D0030843178248531E42D94
:100BB60020004F08013A0319CC2DFE3A0319D12D16
:100BC600D62D20004F080319F52D1A30B300F83042
:100BD600B200B20BEC2DB30BEC2D000000308431CB
:100BE6007824853120004C0803192A2E4F03031957
:100BF600012E4F080319012E2D30022E2030B2008F
:100C06003208C9004F0803190A2E31300B2E303036
:100C1600B2003208CA000830F8008830F9004E08E1
:100C2600B200B3013208FA003308FB004930B400C1
:100C36003408FC00353086313926853114302000E1
:100C4600B2003208F10035308431C72485310330D3
:100C56002000B4008A30B3005630B200B20B312EF9
:100C6600B30B312EB40B312E00327C2D2000AE009A
:100C76007A30A0002008A9007908A1007808A00011
:100C8600F80A0319F90A20088400210885000008DB
:100C9600A2002208B10031080319EB2F25303106D6
:100CA6000319612E3108A0002E088600870120084E
:100CB60081000130A0002008AE073F2EAF01B00131
:100CC600A5016A2E25150130F8070030F93D780890
:100CD6008400790885000008303A0319652E732EC2
:100CE6007808840079088500000884315624863106
:100CF600031C152F2000AF01B0010A30F0000030B0
:100D0600F10020003008F3002F08F20084318C2413
:100D1600863171082000B0007008AF0078088400A2
:100D2600790885000008D03EA000FF300318003087
:100D3600A1002008AF072108B03D0130F8070030B8
:100D4600F93D780884007908850000088431562426
:100D56008631031C152F802E200029088600870166
:100D66000108AA000030AB000130A0002008A90746
:100D76002A082B04031DC32E2F30AA008830AB008F
:100D8600AC01AD012A082C0784002B082D3D8500F7
:100D960012000319D32E0130AC070030AD3DC52E2D
:100DA60030082D02031DD92E2F082C020318E02E21
:100DB6002C08AF022D08B03BE22EAF01B001FF3088
:100DC600AF07FF30B03D2F0A0319300A03190A2F67
:100DD6002030A0002E0886008701200881000130FF
:100DE600A0002008AE07E22E2A0884002B08850002
:100DF6000008A0002E088600870120088100013027
:100E0600AA070030AB3D0130A0002008AE07013034
:100E1600AC020030AD3B2C0A031DF72E2D0A031938
:100E26003F2EF72E79082000A1007808A000F80AC6
:100E36000319F90A20088400210885000008B1007A
:100E4600003A0319EB2F583A0319302F2B3A03199E
:100E5600AF2E0B3A0319302F3F2E200029088600AB
:100E66008701403FA600413FA7000230A0002008AE
:100E7600A907B101B10A043031060319612F3108FF
:100E8600A000A101A035A10D003020078400883004
:100E9600213D8500003FA200013FA3002308270251
:100EA600031D572F22082602031C612F0130A000C4
:100EB6002008B10704303106031D422F3108A00077
:100EC600A101A01BA1032108803AA2003008803AA4
:100ED6002202031D702F2F08200203187D2F2000E9
:100EE6003108A000A101A01BA1032008AF02210820
:100EF600B03B802F2000AF01B001251D962F2F0893
:100F060030040319AD2F3030A0002E08860087016B
:100F1600200881000130A0002008AE07FF30AF078F
:100F2600FF30B03D822F2F0830040319AD2F20303B
:100F3600A0002E0886008701200881000130A0004D
:100F46002008AE07FF30AF07FF30B03D2F08300452
:100F5600031D9A2F3108A0002008A800FF30A0002A
:100F66002008A807280A03193F2E2808A000A10177
:100F7600A035A10D0030200784008830213D850072
:100F8600003FF000013FF1002708F3002608F200B9
:100F96008431EF24863170080F392000A200220820
:100FA600A40024081E3E840088300318013E8500F4
:100FB6000008A0002008B1003108A0002E08860015
:100FC6008701200881000130A0002008AE07B12F5C
:100FD60020002E0886008701810108002000843148
:100FE6004B248731D00084314C248731D1008431A1
:100FF6004D24D200200085315A2D0134003410349E
:101006000034003401340034103441346C34743408
:101016003A34203430347834253430343234583449
:10102600203441347A343A3420342534733420342D
:101036000A340D34003430343134323433343434F9
:101046003534363437343834393441344234433421
:10105600443445344634003428346E3475346C34A4
:061066006C342934003453
:020000040001F9
:04000E00C4FFFFDF4D
:00000001FF
